:1000000012C0A4C2ADC22AC029C028C07EC226C068
:1000100025C024C023C022C021C020C01FC01EC0D4
:100020001DC01CC01BC011241FBECFE5D4E0DEBF25
:10003000CDBF10E0A0E6B0E0ECEEFEE002C005901F
:100040000D92A639B107D9F721E0A6E9B0E001C0C9
:100050001D92A53FB207E1F7E2D346C7D1CFCF93B8
:10006000DF9380E8C4D0C0E0D0E0FE01E756FF4F48
:100070008081A8D02196C431D105B9F780ECB7D0E2
:10008000C0E0D0E0FE01E756FF4F84899BD0219667
:10009000C431D105B9F7DF91CF910895979A87ECD4
:1000A00090E00197F1F700C0000097980895E09163
:1000B000C20191E09E0F9093C201F0E0EF53FF4F19
:1000C00080838091C2010895E091C10181E08E0F8B
:1000D0008093C1018091C101F0E0EF53FF4F808117
:1000E0000895CF932FE788E391E02150804090401E
:1000F000E1F700C00000C3E0C8BBD0DF8FE097E2AB
:100100000197F1F700C00000C8BBC8DF8FE097E29D
:100110000197F1F700C00000C8BBC0DF8FE99FE086
:100120000197F1F700C00000C2E0C8BBB7DF8FE95C
:100130009FE00197F1F700C00000C8BBAFDF8FE977
:100140009FE00197F1F700C00000C8E0C8BBA6DF40
:100150008FE99FE00197F1F700C0000018BA9EDF19
:100160008FE99FE00197F1F700C00000C8BB96DF60
:100170008FE99FE00197F1F700C0000018BA8EDF09
:100180008FE99FE00197F1F700C0000081E088BB94
:1001900085DF8FE99FE00197F1F700C0000018BAF2
:1001A0007DDF8FE99FE00197F1F700C000008CE050
:1001B00088BB74DF8FE99FE00197F1F700C0000072
:1001C000CF910895CF93C82F87EC90E00197F1F776
:1001D00000C000008C2F82958F7088BB969A5EDFDE
:1001E0008C2F8F7088BB5ADF8C2FCF9110C2CF938A
:1001F000C82F87EC90E00197F1F700C000008C2F2A
:1002000082958F7088BB969849DFCF70C8BB96984F
:10021000CF9144CFCF93DF93D82FC62F862FD11500
:1002200029F080E4860FD13009F080E08068DFDFBC
:100230006C2F8D2F6DD2D093C501C093C401DF9177
:10024000CF9108951F93CF93DF93C82FD62F142FEC
:10025000823088F4643178F4682F8D2FDBDF812FB2
:10026000B1DF84E1C89F900111242A533E4FF90168
:10027000ED0FF11D1083DF91CF911F91089560E084
:1002800080E0C8DF1092C5011092C401089580E09B
:1002900090E020E2FC01EA53FE4F20830196843176
:1002A0009105C1F780E090E020E2FC01EA53FE4FA7
:1002B000248B019684319105C1F781E098DFDFCF6F
:1002C0009091C501923090F49091C401943170F4F2
:1002D0002091C501E091C40194E1299F900111246E
:1002E0002A533E4FE20FF32FF11D80838091C4010A
:1002F0008F5F8093C401843158F01092C4018091C3
:10030000C5018F5F8093C501823010F01092C50146
:100310000895CF93982F82958F70C92FCF70903A00
:1003200048F4805DCDDF80E3CA3008F087E38C0FAE
:10033000CF91C6CF895CF6CFCF93DF93EC01899143
:10034000811103C0DF91CF910895BADFF8CF0F93E9
:100350001F93CF938C01C0E0F801EC0FF11D849145
:100360009FEF980F9E3F18F4ABDFCF5FF5CFCF9193
:100370001F910F910895CF92DF92EF92FF920F930A
:100380001F93CF93DF93CDB7DEB7C054D1090FB61B
:10039000F894DEBF0FBECDBFAE01455B5F4FFA01E3
:1003A00061917191AF018E010F5F1F4F80E4F801E1
:1003B00011928A95E9F7C801C6D26801E12CF12CA7
:1003C000F80101900020E9F73197E01BF10BEE16E0
:1003D000FF0688F024D1C05CDF4F0FB6F894DEBF73
:1003E0000FBECDBFDF91CF911F910F91FF90EF9086
:1003F000DF90CF900895F60181916F01E3DEFFEF6A
:10040000EF1AFF0ADDCF8F929F92AF92BF92CF92E9
:10041000DF92EF92FF921F93CF93DF93EC01B62E02
:100420006A01FC0101900020E9F73197E81BF90B04
:10043000E22EF12CA12C2E171F0638F160E08B2D37
:10044000E9DEDF93CF9397DF0F900F90DF91CF918D
:100450001F91FF90EF90DF90CF90BF90AF909F9053
:100460008F90089560E08B2DD5DE8C0E9D1E10E0E0
:10047000F40181914F01A6DE1F5F1431C9F780E0BE
:1004800090E08C159D0581F4A3948A2C912CFE019B
:1004900001900020E9F73197EC1BFD0BEE19FF09E5
:1004A000EA15F105F8F6D2CFEFECF7E03197F1F766
:1004B00000C000000196E5CF89EF8CBF8DE083BFBF
:1004C00089B7826089BF08958EB588608EBD8EB56C
:1004D00083608EBD84ED90E39BBD8ABD89B780614A
:1004E00089BF08958FE087BB14BA80EC81BB9EE082
:1004F00095BF8BBFE9DF789408958AE085BD89EFC9
:1005000083BD89B7806889BF08958F938FB78F9314
:100510009F93AF93BF938091EE019091EF01A091D3
:10052000F001B091F1018C599F4FAF4FBF4F8093B5
:10053000EE019093EF01A093F001B093F101BF9110
:10054000AF919F918F918FBF8F9118951F921FB67A
:100550001F9211241092F2011F901FBE1F90189538
:100560001F920F920FB60F9211242F933F934F9328
:100570005F936F937F938F939F93AF93BF93EF930B
:10058000FF938091F201E3B380FD1FC0EF70F0E0B4
:10059000E05AFF4F80818295807F8093F4018091A3
:1005A000F2018F5F8093F201FF91EF91BF91AF91C4
:1005B0009F918F917F916F915F914F913F912F917B
:1005C0000F900FBE0F901F9018958091F401EF705F
:1005D000F0E0E05AFF4F9081892B8093F40183B3C0
:1005E00080718093F3018091F301811521F0809156
:1005F000F4015DDDD4CF8091F401807C8038B9F3C3
:10060000803C69F68091F4018F738657F2CF5D9B31
:10061000FECF8CB908955F9BFECF8CB108958DE01D
:10062000F6DF8AE0F4CFCF92DF92EF92FF920F9342
:100630001F93CF93DF93CDB7DEB7C054D1090FB668
:10064000F894DEBF0FBECDBFAE01455B5F4FFA0130
:1006500061917191AF018E010F5F1F4F80E4F8012E
:1006600011928A95E9F7C8016ED16801E12CF12C4D
:10067000F80101900020E9F73197E01BF10BEE162D
:10068000FF0680F0C05CDF4F0FB6F894DEBF0FBEF0
:10069000CDBFDF91CF911F910F91FF90EF90DF9031
:1006A000CF900895F60181916F01B1DFFFEFEF1A4E
:1006B000FF0ADECF1F93CF93DF93CDB7DEB76197ED
:1006C0000FB6F894DEBF0FBECDBF182F81E1E5E86D
:1006D000F0E0DE01119601900D928A95E1F7812FED
:1006E00082958F70FE013196E80FF11D80818FDFBA
:1006F0001F70FE013196E10FF11D808161960FB6EA
:10070000F894DEBF0FBECDBFDF91CF911F917FCF99
:100710001F93CF93DF93D82FC62F8BE178DF8BE524
:1007200076DF1AE08D2F612F02D1D92F805D6FDF28
:1007300080E38D0F6CDF8BE36ADF8C2F612FF7D0A6
:10074000C92F805D64DF80E38C0F61DF88E4DF9177
:10075000CF911F915CCFCF93C82F8BE158DF8BE5F2
:1007600056DF8C2F6AE0E3D0C92F805D50DF80E335
:100770008C0F4DDF87E4CF914ACF8BE148DF8BE5CB
:1007800046DF82E344DF8AE442CF8BE140DF8BE542
:100790003EDF82E33CDF8BE43ACF8BE138DF8BE551
:1007A00036DF8FE334DF82E332DF85E330DF88E654
:1007B0002ECF8BE12CDF8BE52ADF8FE328DF82E36E
:1007C00026DF85E324DF8CE622CF10BC8CE089B9DC
:1007D00088E18AB986E880BD87EC90E00197F1F75F
:1007E00000C00000CADF60E080E092DFE2CF8BE172
:1007F0000EDF8BE50CDF8FE30ADF81E308DF82E3A6
:1008000006DF88E604CF8BE102DF8BE500DF8FE3B4
:10081000FEDE81E3FCDE82E3FADE8CE6F8CED5DF95
:1008200061DE5FDC2CDD80E790E09F938F93A3DD9A
:100830002FEF83ED90E3215080409040E1F700C01E
:10084000000088E4D4DC84E0BDDC84E0BBDC84E030
:10085000B9DC80E0B7DC84E0B5DC84E0B3DC84E0C4
:10086000B1DC80E0AFDC0F900F9014E19091C201F9
:100870008091C101981709F453C026DCC82F807CF1
:100880008038F1F4DC2FDF73D11102C07EDF91DFFD
:100890008D2F61DF8091960081110DC08D2F8068B2
:1008A000A6DC8C2F8E708E3009F7C0FB882781F96B
:1008B0008D609DDCDBCF10929800D0939700F1CF34
:1008C000C23059F0CC3749F0C13049F080919600E0
:1008D000811107C08C2F76DCE4CFC1E0F7CFCFEFDA
:1008E000F5CF80919800E0919700189FC0011124E6
:1008F00087569F4FE80FF92FF11DC0838091970015
:100900008F5F80939700843160F2109297008091FE
:10091000980090E001968170992780939800C1CF4C
:1009200080919600811509F4A1CF99DB9FCF99277B
:1009300078E0880F991F961708F0961B881F7A9504
:10094000C9F780950895AEE0B0E0E8EAF4E0A3C20C
:100950008C0186E08C831A8309838FEF9FE79E8347
:100960008D83CE01019609D02F813885020F131F88
:10097000F80110822E96E4E0AAC2ABE0B0E0E2EC0F
:10098000F4E07CC26C017B018A01FC0117821682B3
:10099000838181FFCBC19AE0492EF6012381F701C3
:1009A00023FD859123FF81917F01811509F418C1F1
:1009B000853239F423FD959123FF91917F01953282
:1009C00021F4B60190E0CBD1E8CF30E0612C512C7E
:1009D000712CF0E27F1640F59B32D9F058F490323A
:1009E000D1F09332F1F09E3299F576FCF9C068941B
:1009F00076F806C09D3291F09033C1F4689470F897
:100A0000F70123FD959123FF91917F019111E1CF92
:100A100029C0689471F8689472F8F2CF689473F8FA
:100A2000EFCF689474F8ECCF77FC1CC080ED890F91
:100A30008A30C8F676FE05C0649C800D1124682EAD
:100A4000DFCF549C800D1124582E689475F8D8CFB0
:100A50009C3619F4689477F8D3CF9C3409F44AC0D3
:100A6000983671F2892F8F7D8554833008F444C005
:100A7000933609F464C0933709F467C0933509F4D9
:100A800072C0943619F0993609F099C0F80177FED2
:100A90008FC061917191819191918F01272D2F7656
:100AA000722E97FF09C090958095709561957F4F44
:100AB0008F4F9F4F689477F82AE030E0AE014F5F88
:100AC0005F4F5A017CD18A19A82E76FEBEC0872DB1
:100AD0008E7FA61408F0B8C074FE07C172FCFBC07C
:100AE000F72DFE7E7F2EB62C872D8678811509F492
:100AF000B9C0F6C031E084CF3115F1F0085F1F4F67
:100B00008FE3898388248394912CAE014F5F5F4FDC
:100B10005A01E89477F873FC03C08514910498F1A6
:100B200081149104B1F5511409F437CFB60180E274
:100B300090E015D15A94F7CF0C5F1F4FE1CFF80129
:100B4000808189830E5F1F4FDDCFF801A190B190A6
:100B50008F01662D70E076FC02C06FEF7FEFC5015C
:100B6000F3D04C01D6CFF801A190B1908F01662D42
:100B700070E076FC02C06FEF7FEFC501DAD04C0168
:100B8000689477F8C8CFB60180E290E0E8D05A9434
:100B9000C4CFF50177FC859177FE81915F01B601A5
:100BA00090E0DDD051105A94F1E08F1A9108B8CF3F
:100BB00061917191072E000C880B990B6ECF372C29
:100BC000E89434F82AE030E0953731F1572D597F19
:100BD000352E903791F050F49835A1F09F36D1F032
:100BE000F601868197812B96E1E164C19837C1F7C0
:100BF00074FC05C020E130E00FC0689434F86894BC
:100C000032F8F8CF74FE03C0872D8660382E20E1BD
:100C100032E002C028E030E0F80137FE10C06191F8
:100C20007191819191918F01FE0131965F01AF0128
:100C3000C6D08A19A82E732CE89477F846CF619114
:100C4000719180E090E0EFCF782EBA2C74FE4CCFFB
:100C5000FE01EA0DF11D8081803309F03FC0272D90
:100C6000297E722E73FC0EC070FE4AC06A2CB51429
:100C700018F4650C6B18B52C852D8B195B1408F4D2
:100C800080E0B80EB514F0F55B1874FE3DC0B601F7
:100C900080E390E064D072FE08C088E590E071FCCB
:100CA00002C088E790E0B6015AD0A614C8F1AA9411
:100CB000B12C4FEFA41AB40ACE0101963C01A80E44
:100CC000B91EF50182915F01B60190E048D06A1427
:100CD0007B04B9F728CFB62C782EBACF72FC02C0AD
:100CE000B394C0CFB394B394BDCFB62C782EFCCEC2
:100CF000B60180E290E033D033943514C8F3BCCF12
:100D00003B2CFBCF512CC1CF872D8678811569F202
:100D100080E271FC8BE277FC8DE2B60190E0C4CFFB
:100D2000B60180E390E01BD06A94BFCF8FEF9FEFB6
:100D30005ACFFC010590615070400110D8F78095A2
:100D400090958E0F9F1F0895FC0161507040019097
:100D50000110D8F7809590958E0F9F1F08950F93DF
:100D60001F93CF93DF93182F092FEB018B8181FD08
:100D700009C01FEF0FEF812F902FDF91CF911F91AF
:100D80000F91089582FF14C02E813F818C819D8137
:100D9000281739073CF4E881F981CF01019699833E
:100DA000888310838E819F8101969F838E83E3CFFA
:100DB000E885F985812F0995892BA1F3DACFFA010E
:100DC000AA27283051F1203181F1E8946F936E7F8A
:100DD0006E5F7F4F8F4F9F4FAF4FB1E03ED0B4E07B
:100DE0003CD0670F781F891F9A1FA11D680F791FBC
:100DF0008A1F911DA11D6A0F711D811D911DA11DCD
:100E000020D009F468943F912AE0269F11243019DC
:100E1000305D3193DEF6CF010895462F4770405D77
:100E20004193B3E00FD0C9F7F6CF462F4F70405D26
:100E30004A3318F0495D31FD4052419302D0A9F781
:100E4000EACFB4E0A6959795879577956795BA957B
:100E5000C9F700976105710508959B01AC010A2E41
:100E600006945795479537952795BA95C9F7620F18
:100E7000731F841F951FA01D08952F923F924F92BC
:100E80005F926F927F928F929F92AF92BF92CF921A
:100E9000DF92EF92FF920F931F93CF93DF93CDB723
:100EA000DEB7CA1BDB0B0FB6F894DEBF0FBECDBF9B
:100EB00009942A88398848885F846E847D848C846C
:100EC0009B84AA84B984C884DF80EE80FD800C8175
:100ED0001B81AA81B981CE0FD11D0FB6F894DEBF58
:0C0EE0000FBECDBFED010895F894FFCFC8
:100EEC000008020A040C060E0109030B050D070F7E
:100EFC00202A2A20526F6C616E64204D542D33329F
:100F0C00202A2A20003031323334353637383941F3
:060F1C004243444546007B
:00000001FF
