:1000000012C02DC039C02AC029C028C027C026C0B0
:1000100025C024C023C022C021C020C01FC01EC0D4
:100020001DC01CC01BC011241FBECFE5D4E0DEBF25
:10003000CDBF10E0A0E6B0E0E4E0F5E002C005903E
:100040000D92A037B107D9F711E0A0E7B0E001C0E9
:100050001D92A13AB107E1F76ED052C2D1CF1F92E3
:100060000F920FB60F9211247894109276000F9091
:100070000FBE0F901F9018951F920F920FB60F9200
:1000800011242F933F934F935F936F937F938F939D
:100090009F93AF93BF93EF93FF938091760080FD82
:1000A0000CC0E3B3F0E0EF70F070E05AFF4F8081D6
:1000B0008295807F8093740028C090917400E3B390
:1000C000F0E0EF70F070E05AFF4F8081982B909332
:1000D000740083B3807180937500809175008823CC
:1000E00061F48091740090E0807C9070803891057C
:1000F00021F0803C910549F403C08091740004C054
:10010000809174008F73865783D0809176008F5FC3
:1001100080937600FF91EF91BF91AF919F918F9166
:100120007F916F915F914F913F912F910F900FBEF3
:100130000F901F9018950F931F938FE087BB14BAF1
:1001400090EC91BB8EE085BF9BBF7CD0789481E022
:1001500005D182E003D19091A00180919F01981771
:10016000D1F363D0182F807C803819F4812FF6D01A
:1001700012C0123019F410E00CE70AC0113011F46B
:100180001FEF05C01C3719F40CE710E001C0012F68
:10019000812FCDD0102F212F30E0C9018E709070AB
:1001A0000E97C9F621703070220F331F822F8D6099
:1001B000D1CF81E0D3D080EA9FE00197F1F781E4CD
:1001C000B6D088E893E128EC30E0F9013197F1F7F7
:1001D0000197D9F782E4ABD088E893E128EC30E0CE
:1001E000F9013197F1F70197D9F783E4A0D088E8B6
:1001F00093E128EC30E0F9013197F1F70197D9F755
:100200000895979A88EC90E00197F1F797980895F0
:100210009091A001E7E7F0E0E90FF11D80839F5F77
:100220009093A0018091A001089590919F01E7E72C
:10023000F0E0E90FF11D80819F5F90939F01909105
:100240009F01089524EF31E068EC70E048EC50E045
:10025000CB010197F1F721503040C1F723E028BBD3
:10026000979ACA010197F1F7979880E197E2FC010C
:100270003197F1F728BB979AFA013197F1F79798E0
:100280000197F1F728BB979ACA010197F1F7979860
:1002900020EA3FE0C9010197F1F782E088BB979A15
:1002A000FA013197F1F79798F9013197F1F788BB87
:1002B000979ACA010197F1F79798C9010197F1F749
:1002C00088E088BB979AFA013197F1F79798F9017E
:1002D0003197F1F718BA979AFA013197F1F7979891
:1002E000F9013197F1F788BB979ACA010197F1F7A5
:1002F0009798C9010197F1F718BA979ACA0101971F
:10030000F1F79798C9010197F1F78CE088BB979AAC
:10031000CA010197F1F79798C9010197F1F785E0B4
:100320008CBF8DE083BF89B7826089BF089528ECB8
:1003300030E0F9013197F1F7982F92959F7098BBB3
:10034000969A979AF9013197F1F797988F7088BB31
:10035000979AC9010197F1F79798089528EC30E032
:10036000F9013197F1F7982F92959F7098BB969865
:10037000979AF9013197F1F797988F7088BB969803
:10038000979AC9010197F1F7979808951F920F92D4
:100390000FB60F9211242F933F934F935F936F9358
:1003A0007F938F939F93AF93BF93EF93FF9380912E
:1003B00073008F5F8093730080917300883210F018
:1003C0001092730080917300882311F480E8C6DFD7
:1003D00080917300843111F480ECC0DFE0917300F0
:1003E000F0E0E958FE4F8081A2DFFF91EF91BF91CD
:1003F000AF919F918F917F916F915F914F913F91BD
:100400002F910F900FBE0F901F90189510927100B2
:1004100080917100809372000895809372006093C0
:1004200071000895E7E7F1E080E2819391E0EF3910
:10043000F907D9F7109271008091710080937200D2
:100440000895E091710090917200F0E024E0EE0FC9
:10045000FF1F2A95E1F7E90FF11DE958FE4F808350
:10046000809172008F5F8093720080917200803162
:1004700068F010927200809171008F5F809371001C
:1004800080917100823010F01092710008951F93D6
:10049000982F92959F70182F1F709A3018F4892FFB
:1004A000805D02C0892F895CCCDF1A3018F4812F5F
:1004B000805D02C0812F895CC4DF1F910895CF93B6
:1004C000DF93EC0102C02196BCDF88818823D9F735
:1004D000DF91CF9108951F93CF93DF93EC0110E04C
:1004E000FE01E10FF11D9491892F81508E3F20F480
:1004F000892FA7DF1F5FF4CFDF91CF911F91089560
:04050000F894FFCF9D
:100504000008020A040C060E0109030B050D070F6F
:00000001FF
